:030000000214E205
:03000B00021A785E
:03003300021DC2E9
:03004300021300A5
:0300530002130095
:1000800090E6837402F07422F07416F07436F02255
:100090001201000200000040FD0308000000010200
:1000A00000010A06000200000040050009022000CD
:1000B00001010080250904000002FF00000007057F
:1000C00002024000000705860240000009022000ED
:1000D00001020080250904000002FF00000007055E
:1000E0000202000200070586020002000902200049
:1000F000010300801E0904000002FF000000070544
:1001000002024000000705860240000009072000A7
:10011000010400801E0904000002FF000000070522
:100120000202400000070586024000000907200087
:10013000010500801E0904000002FF000000070501
:1001400002020002000705860200020004030904FF
:100150001003580049004C0049004E005800200090
:100160001603580049004C0049004E00580020007A
:100170002000200020000000E4F544F545F546F598
:1001800047F548F549F553F552F551F550D207902A
:10019000E6BBE0F55190E6BDE0F55290E6BCE0F537
:1001A0005390E6BAE064A6707190E6A0E04480F057
:1001B0007F021210007850120B7CEF5403FFE48F83
:1001C0000CAF53AE52AD51AC507802120B368F5378
:1001D0008E528D518C50E50C7016E55324FFFFE5CF
:1001E0005234FFFEE55134FFFDE55034FFFC80083A
:1001F000AF53AE52AD51AC508F538E528D518C5087
:10020000E50C70047F048002AF0C8F0C850C57AB9B
:1002100053AD52AF511213B8C1D790E6BAE0120BEA
:10022000EB06B21006AD18069E20068A2806853019
:1002300006943806A34006A85006995202A3680205
:10024000D06C06B77006B77106B77206B77306B7FB
:100250007406B77506B77606B77706B77806B77926
:1002600006B77A06B77B06B77C06B77D06B77E066B
:10027000B77F02C58802CA8A02C58C02CA8E02C52F
:100280009002CA9202C59402CA9602C59802CA9AFE
:1002900002C59C02CA9E06C9A002D0A202D0A40038
:1002A0000006D57EE07FA91210F590E6BCE004447C
:1002B00020F5A0121DADE490E6F0F090E6BDE090D0
:1002C000E6F1F0C1CC5380EFC20730070343801042
:1002D00090E6BAE0F54FE5532401F553E43552F5C5
:1002E00052E43551F551E43550F550E54F24707026
:1002F0000261C224FE700261C224FE700261C22447
:10030000FE700261C224F260062402600261C5E44C
:10031000F516F51790E68BF0121D7750267B007AC4
:10032000007947121800501BAB47AA48A949120987
:10033000E6F54A9000011209FFF54B900002120900
:10034000FFF54C90E6A0E04480F07F01121000E53C
:10035000535407FFE48F0CAF53AE52AD51AC5078FD
:1003600003120B368F538E528D518C50E50C701644
:10037000E55324FFFFE55234FFFEE55134FFFDE570
:100380005034FFFC8008AF53AE52AD51AC508F5388
:100390008E528D518C50E50C70047F088002AF0C9A
:1003A0008F0C438080E4FFFEFDFCAB53AA52A951A1
:1003B000A850C3120B2560047F088002AF0C8FA0E9
:1003C00081B575446090E6A0E04480F0E544700398
:1003D0007544A07F01121000E553540FFFE48F0C09
:1003E000AF53AE52AD51AC507804120B368F538ED2
:1003F000528D518C50E50C6013E5532401FFE43518
:1004000052FEE43551FDE43550FC8008AF53AE5246
:10041000AD51AC508F0B8E0A8D098C08AB10AA0F12
:10042000A90EA80D120A93AC00AD01AE02AF03E411
:10043000FBFAF9F8C3120B257006AF10AE0F801748
:10044000AB10AA0FA90EA80DAF0BAE0AAD09AC08F0
:10045000120A93AE02AF038E118F12E50C7016E5EF
:100460005324FFFFE55234FFFEE55134FFFDE55014
:1004700034FFFC8008AF53AE52AD51AC508F538E59
:10048000528D518C50E50C70047F108002AF0C8FA0
:100490000C53807FE4FFFEFDFCAB53AA52A951A888
:1004A00050C3120B256007E5444410FF8005E54466
:1004B000450CFF8FA05380BFE54F120BEB06286C55
:1004C00006288806288A06288C06288E066F90063D
:1004D0006F92066F94066F9604EE9804EE9A04EEFF
:1004E0009C04EE9E0628A204EEA4000006D7E54F69
:1004F000B4A40AE4F54D754E08C2068008754DA0F7
:10050000754E10D206121DA5E5532401F553E435AE
:1005100052F552E43551F551E43550F550E54FB4FC
:10052000A403438080E47F01FEFDFCAB53AA52A9E3
:1005300051A850C3120B25700B438040E54D450C6C
:10054000F5A08006E54D454EF5A0121DB3121D1510
:1005500053807F75A0E1A206920885455D85465EC1
:100560001212AB0546E54670020545E55324FFF53A
:1005700053E55234FFF552E55134FFF551E550345F
:10058000FFF55090E625E0702DB54608E545B4022C
:100590000330060DE5467004E545640170533006EE
:1005A00050E4FFFEFDFCAB53AA52A951A850D31250
:1005B0000B25403D8029E5466440454570033006E3
:1005C0000BE546642045457028300625E4FFFEFD16
:1005D000FCAB53AA52A951A850D3120B254012A22A
:1005E000069208854554854655121A40E4F545F5AE
:1005F00046E4FFFEFDFCAB53AA52A951A850D3120A
:100600000B254002A11DA2069208755D00755E00D3
:10061000755F45850C601211DBA206920885455472
:10062000854655121A40C1D7E4FFFEFDFCAB53AA24
:1006300052A951A850D3120B25400E121DB3AF532F
:10064000AE52AD51AC501219FFE5A054E0450CF587
:10065000A0438040121D15E58030E70353807FE5FD
:1006600048454945476070AB4CAD4BAF4A80557526
:100670005800755900755A117B007A007950AD0CFD
:100680001214548052121733804290E6BCE0FF12DD
:100690000FFD80381219BB8033121C18802E1217E0
:1006A000998029121CFF802412165C801F121D667F
:1006B000801A121DC6801590E6BAE0FF90E6BCE0F5
:1006C000FDA3E0FB120E8E800E121AAC90E6A0E0A5
:1006D0004480F08002C322D322C102C101C105C1FE
:1006E000841222FF1DBEFF1DCAFF1DCAFF1C8BFF07
:1006F0001DCAFF1DCAC103C100011A116021E067B4
:1007000060010101012B010107020202020306023E
:1007100002010003020302020200000000000000C8
:100720003F6021E02560020202020133020702025B
:100730000202020306020100030203030202000098
:1007400000000000003F6021E04660040404040350
:10075000330407020202020203060201000302033D
:10076000030202000000000000003F6021E004607E
:100770000101080807330107020202020203060210
:100780000100030203030202000000000000003F1A
:100790006021E12D60101010100F331007020202CB
:1007A000020203060201000302030302020000002A
:1007B000000000003F6021E14E60202020201F3318
:1007C00020070202020202030602010003020303E1
:1007D0000202000000000000003F6021E1D2400161
:1007E00001010101320107000000000001020001C7
:1007F00000030203020302000000000000003F604B
:1008000021E19040020202020133020700000000D1
:1008100000010200010003020303020200000000C5
:100820000000003F6021E1B14004040404033304EC
:1008300007000000000001020001000302030302A0
:1008400002000000000000003F6021E16F40080846
:10085000080807330807000000000001020001003B
:10086000030203030202000000000000003F6021B9
:10087000E0EB40101010100F3310070000000000D4
:100880000102000100030203030202000000000055
:1008900000003F6021E10C40202020201F33200772
:1008A0000000000000010200010003020303020235
:1008B000000000000000003F6021E0CA202020204E
:1008C0001F3A0101070202020203020202010003B1
:1008D0000202020202000000000000003F6021E06E
:1008E000A920040404032A040307060202020302E7
:1008F00002020100030202030202000000000000E5
:10090000003F6021E08800040404032A0403070672
:1009100002020203020202010003020203020200B9
:100920000000000000003F01630001640003650057
:1009300000000368000000036B000000036E00006D
:1009400000010C00C10CC10D0216000002180001CC
:1009500060211F2160010000212F01B70702020260
:100960000307120302000302020202020200000057
:10097000120900123F421EDB0201421EDD04034247
:100980001ED90807421F42100F421ED7201F6021A8
:100990001EDF600101192701AF01070202030712E0
:1009A000030002000302020202000200001209001A
:1009B00012003F60211F00400101012201020707D0
:1009C0000000000102000100010003020302020214
:1009D000000000000000093FC10AC10B0113000123
:1009E000140001150000BB010689828A83E02250B1
:1009F00002E722BBFE02E32289828A83E49322BBC0
:100A0000010CE58229F582E5833AF583E022500660
:100A1000E92582F8E622BBFE06E92582F8E222E516
:100A20008229F582E5833AF583E49322BB010A89A2
:100A3000828A83E0F5F0A3E022500687F009E719E7
:100A400022BBFE07E3F5F009E3192289828A83E4D9
:100A500093F5F07401932275F008758200EF2FFF73
:100A6000EE33FECD33CDCC33CCC58233C5829BED86
:100A70009AEC99E58298400CF582EE9BFEED9AFD8A
:100A8000EC99FC0FD5F0D6E4CEFBE4CDFAE4CCF93A
:100A9000A88222B800C1B90059BA002DEC8BF084AD
:100AA000CFCECDFCE5F0CBF97818EF2FFFEE33FE7B
:100AB000ED33FDEC33FCEB33FB10D703994004EB33
:100AC00099FB0FD8E5E4F9FA227818EF2FFFEE33FF
:100AD000FEED33FDEC33FCC933C910D7059BE99A11
:100AE0004007EC9BFCE99AF90FD8E0E4C9FAE4CCA2
:100AF000FB2275F010EF2FFFEE33FEED33FDCC330C
:100B0000CCC833C810D7079BEC9AE899400AED9BF4
:100B1000FDEC9AFCE899F80FD5F0DAE4CDFBE4CCD3
:100B2000FAE4C8F922EB9FF5F0EA9E42F0E99D4213
:100B3000F0E89C45F022E8600FECC313FCED13FDD8
:100B4000EE13FEEF13FFD8F122E8600FEFC333FF7F
:100B5000EE33FEED33FDEC33FCD8F122BB01078907
:100B6000828A83020C235005E9F8020C17BBFE05AC
:100B7000E9F8020C2F89828A83020C3B7401FF334F
:100B800095E0FEFDFC080808E62FFFF618E63EFE9D
:100B9000F618E63DFDF618E63CFCF622BB011A8984
:100BA000828A83D0F0D0E0F8D0E0F9D0E0FAD0E04B
:100BB000FBE8C0E0C0F0020C545016E9F8D083D036
:100BC00082D0E0F9D0E0FAD0E0FBC082C083020C12
:100BD0004BBBFE16E9F8D083D082D0E0F9D0E0FA22
:100BE000D0E0FBC082C083020C5D22D083D082F8AB
:100BF000E4937012740193700DA3A393F87401939E
:100C0000F5828883E4737402936860EFA3A3A380E2
:100C1000DF8A838982E473E6FC08E6FD08E6FE08C5
:100C2000E6FF22E0FCA3E0FDA3E0FEA3E0FF22E25A
:100C3000FC08E2FD08E2FE08E2FF22E493FC7401F6
:100C400093FD740293FE740393FF22EBF608EAF619
:100C500008E9F622EBF0A3EAF0A3E9F022EBF208B0
:100C6000EAF208E9F22290E6B9E0B4B0091201789C
:100C70005002C18DC18690E6B9E0B40C004002C1BB
:100C800086900C8725E073A129A19DC186C11AC158
:100C900086C186819FC186A124A116A10CA11190B5
:100CA000E6BBE024FE602914603A24FD601814605D
:100CB000292406704EE53790E6B3F0E53890E6B4A7
:100CC000F0754101805CE53F90E6B3F0E540802D92
:100CD000E53990E6B3F0E53A8023E53B90E6B3F0E2
:100CE000E53C801990E6BAE0FF121B99AA06A90715
:100CF0007B01EA494B600CEE90E6B3F0EF90E6B46E
:100D0000F0801F90E6A0E04401F08016121D52A171
:100D10009B121D85A19B121921E53464026003E436
:100D2000F5418077121D3EC17E90E6B8E0247F60D9
:100D30000F1460132402705CA201E43325E08041AB
:100D4000E490E740F0803F90E6BCE0547EFF7E00F8
:100D5000E0D394807C0040047D0180027D00EC4E55
:100D6000FEED4F2492F582741D3EF583E493FF332C
:100D700095E0FEEF24A1FFEE34E68F82F583E05488
:100D80000190E740F0E4A3F090E68AF090E68B74DF
:100D900002F0800790E6A0E04401F0C17E90E6B842
:100DA000E024FE60112402706F90E6BAE0B4010402
:100DB000C2018064805B90E6BAE0705590E6BCE0CA
:100DC000547EFF7E00E0D394807C0040047D01804F
:100DD000027D00EC4EFEED4F2492F582741D3EF52F
:100DE00083E493FF3395E0FEEF24A1FFEE34E68F1A
:100DF00082F583E054FEF090E6BCE05480131313B8
:100E0000541FFFE0540F2F90E683F0E04420F08061
:100E10000790E6A0E04401F08064121DB9505F9095
:100E2000E6B8E024FE601C2402705390E6BAE0B4F9
:100E30000104D201804890E6BAE06402604090E686
:100E4000A0803790E6BCE0547EFF7E00E0D3948023
:100E50007C0040047D0180027D00EC4EFEED4F24BD
:100E600092F582741D3EF583E493FF3395E0FEEF27
:100E700024A1FFEE34E68F82F583E04401F090E692
:100E8000A0E04480F02290E6A0E04401F0228F54DC
:100E90008D558B56E4F55AF559F558F55790E6A05F
:100EA000E04480F07EE07FCA1210F5E554248824E7
:100EB000F85002800853807F53A01F800B53807F1F
:100EC000E5A0541F44C0F5A0E5542490B410005090
:100ED00039900EDB25E05002058373C1FBC1FBE1B5
:100EE00005E105C1FBC1FBE105E105C1FBC1FBE17A
:100EF00005E105C1FBC1FBE105E105E58054AF4417
:100F000040F580800843805080035380EFE485568D
:100F10005AF559F558F557AF5AAE59AD58AC577800
:100F200008120B49EEFAE555F55AEAF559E4F55879
:100F3000F557E55A2401F55AE43EF559E43558F5DC
:100F400058E43557F557E4FFFE7D01FCAB5AAA592A
:100F5000A958A857C3120B25700A755AFF7559FF77
:100F6000F558F557121DADAF5AAE59AD58AC57787C
:100F700008120B3690E6F0EFF090E6F1E55AF01229
:100F80001DADE55464796029E554647B6023E55424
:100F9000647D601DE554647F6017E55464716011E1
:100FA000E5546473600BE55464756005E554B477EB
:100FB0001090E740E554F0E490E68AF090E68B0468
:100FC000F022200D1F200A19E58030E209E5805447
:100FD000FC4409FF8007E58054DC440BFF8F8080D0
:100FE0000343800AE5B120E10653B6A7D20C2230B4
:100FF0000C0AE5B130E10543B658C20C228F1A2223
:101000007863E6B5070808E6651A700201F47863AC
:10101000A60708A61AEF24FE606B04600201F4E53F
:101020001A24F0601F14602914603314603D1460AA
:101030004724F4600201F47EE07F671210F57EE140
:101040007FD280697EE07F251210F57EE17F90805F
:101050005C7EE07F461210F57EE17FB1804F7EE03E
:101060007F041210F57EE17F6F80427EE17F2D12BA
:1010700010F57EE07FEB80357EE17F4E1210F57E2D
:10108000E17F0C80287E1F7F211210F57E1F7F00DC
:101090001210F5E51A24F0601714602114602B1467
:1010A000603514603F24F4704B7E1E7FDF0210F524
:1010B000901EDBE090E461F0901EDC8032901EDD3B
:1010C000E090E461F0901EDE8025901ED9E090E46F
:1010D00061F0901EDA8018901F42E090E461F09079
:1010E0001F43800B901ED7E090E461F0901ED8E083
:1010F00090E462F0228E5B8F5C8F828E83E024E02E
:10110000604224E0606E24E0700221A4246060024A
:1011100021DA7865860308E6FA08E6F9EB8A83891E
:1011200082AA5BA95C7B016401700AE55C65827040
:1011300004E55B6583700221DA121B3FAA5BA95CA0
:10114000786521D27868860308E6FA08E6F9EB8A22
:10115000838982AA5BA95C7B016401700AE55C65F6
:10116000827004E55B65836071121B3FAA5BA95C1A
:101170007868805E786B860308E6FA08E6F9EB8A01
:10118000838982AA5BA95C7B016401700AE55C65C6
:10119000827004E55B65836041121B3FAA5BA95C1A
:1011A000786B802E786E860308E6FA08E6F9EB8AFB
:1011B000838982AA5BA95C7B016401700AE55C6596
:1011C000827004E55B65836011121B3FAA5BA95C1A
:1011D000786E760108A60208A60122200802417C4A
:1011E000E560C39410400241AAAB5DAA5EA95F12FC
:1011F0000A2C24FFFFE5F034FFFEEF25E0FDEE337F
:10120000FC74012DF58274F83CF583E0FE74002D2A
:10121000F58274F83CF583E07C002400F562EC3E36
:10122000F561C374109560FDE562AE61A8050880A4
:1012300005CEC313CE13D8F9FCAB5DAA5EA95F122D
:101240000A2C24FFFFE5F034FFFEEF25E0FBEE3330
:10125000FA74002BF58274F83AF583ECF0E562AE8F
:1012600061A805088005CEC313CE13D8F9EEFF742C
:10127000012BF58274F83AF583EFF022AB5DAA5E9C
:10128000A95FAE02AF01EF4E6020120A2C24FFF5D9
:101290008274F735F0F583E0FFC374089560FEEFC4
:1012A000A806088002C313D8FCF02230081C0000F6
:1012B00000E490E6CFF000000090E6D0F0000000DF
:1012C00090E6D104F0D209021D2A90E6F1E0FF7405
:1012D00000255EF58274F8355DF583EFF0121DADE3
:1012E00090E6F0E0FF7400255EF58274F8355DF558
:1012F00083EFF022E490E670F075B2FB758008226F
:10130000021CA400021CE900021CD300021C4000C5
:101310000218490002189100021DCB00021DCC00EA
:10132000021DCD00021DCE00021DCF00021DD00007
:10133000021DD100021DD200021DD300021DD400E7
:10134000021DD500021DCC00021DD600021DD700D3
:10135000021DD800021DD900021DDA00021DDB00AB
:10136000021DDC00021DCC00021DCC00021DCC00C1
:10137000021DDD00021DDE00021DDF00021DE00077
:10138000021DE100021DE200021DE300021DE40057
:10139000021DE500021DE600021DE700021DE80037
:1013A000021DE900021DEA00021DEB00021DEC0017
:1013B000021DED00021AE000E490E6CEF00000000D
:1013C00090E6CFEFF000000090E6D0EDF0000000D6
:1013D00090E6D1EBF05380BF121DA57558027559E8
:1013E0000490E6D0E0FF90E6D1E04FFF90E6CFE03A
:1013F0004F604B438080E5594420F5A0E4F5BB12D3
:101400001DAD300BDC75A04190E6D17401F00000F9
:1014100000E490E6D0F000000090E6CFF0D2091290
:101420001D2A90E6D1E513F000000090E6D0E51407
:10143000F000000090E6CFE515F0C20B80A38557C1
:101440005943804090E6D17401F0D5589490E64815
:101450007406F0228D578B548A558956E4F55BF556
:101460005C120B5CE4FBFAF9F8C3120B25503AE46A
:1014700090E6CEF0000000AB54AA55A956900001AA
:101480001209FF90E6CFF00000009000021209FF61
:1014900090E6D0F00000009000031209FF90E6D122
:1014A000F0121DADD209121D2A90E699E0F55C906C
:1014B000E698E0F55B438040E5A054E04557F5A091
:1014C000D208E4F55DF55E1212ABD20885585D8551
:1014D000595E855A5F8557601211DB90E6487406A5
:1014E000F022787FE4F6D8FD758170021529021686
:1014F000C8E493A3F8E493A34003F68001F208DF65
:10150000F48029E493A3F85407240CC8C333C454CB
:101510000F4420C8834004F456800146F6DFE4807F
:101520000B01020408102040809006D9E47E01934C
:1015300060BCA3FF543F30E509541FFEE493A36051
:10154000010ECF54C025E060A840B8E493A3FAE4AC
:1015500093A3F8E493A3C8C582C8CAC583CAF0A3FD
:10156000C8C582C8CAC583CADFE9DEE780BE753751
:1015700000753890753F007540A27535007536CC02
:10158000753D00753EEC75420175434C753900752B
:101590003AAC753B01753C0CD2E843D82090E66824
:1015A000E0440BF090E65CE0443DF0D2EA0000003D
:1015B00090E660E04402F0121CBCD2AF90E6FB74EF
:1015C00002F090E600E054E5F090E601740AF012B3
:1015D00012F41219AE121D9C1215ECD206121B1039
:1015E000538EF8C205E4F5347541012290E6F57496
:1015F000FFF090E6F374A0F0E490E6C3F090E6C14B
:10160000F090E6C27402F090E6C0744EF075AF0739
:101610007EE07F881210F57EE07FA91210F57EE152
:101620007FB11210F57EE07F461210F5000000E455
:1016300090E6C4F000000090E6C5F090E6C6F09099
:10164000E6C7F090E6C8F090E6C9F090E6CAF090E0
:10165000E6CBF090E6CCF090E6CDF02290E6BCE050
:10166000146019146042240270499019B9E493FC83
:1016700074019390E740F0ECA3F0804053807F75B5
:10168000A04143B60443B10490E6F1E090E740F096
:1016900090E6F2E090E740F090E6F0E090E741F06D
:1016A00053B1FB53B6FB801490E7407404F0E4A3FD
:1016B000F0800990E7407405F0A304F0E490E68A16
:1016C000F090E68B7402F0221218D912156E3002D7
:1016D00005C202120C66E53475F006A42422F8E572
:1016E0004175F003A428F808E6FA08E6F9120C118F
:1016F000300014C2A990E600E054E7441054FDF015
:10170000C200D206121B10300524C205121C66202E
:10171000011690E682E030E704E020E1EF90E682F7
:10172000E030E604E020E0E4121B6D1217F3120F24
:10173000C2809B300A4D90E6BCE030E6028000900B
:10174000E6BCE030E502800090E6BCE030E40280D8
:1017500000AFB190E6BCE030E205430708800353D8
:1017600007F790E6BCE030E105430710800353071C
:10177000EF90E6BCE030E00543074080035307BF2D
:101780008FB1227EE07FA91210F553807F75A08172
:1017900090E6BCE090E6F1F02290E6BCE05402C492
:1017A0003354E0FFE05401C433333354804FFFE03F
:1017B000540433333354F84FFFE0540825E04FFF0F
:1017C000E05410C3134FFFE05420131313541F4F62
:1017D000FFE05440C41354074FFFE05480C4131378
:1017E0001354014F90E740F0E490E68AF090E68BC6
:1017F00004F022C20D1212F41219AE121D9CD32253
:101800008B548A558956121BC5502774402517F9E9
:10181000E434E7FA7B01C003C002C001AB54AA550F
:10182000A956120B9C74032517F517E43516F51607
:10183000D3227B007A007900C003C002C001AB5400
:10184000AA55A956120B9CC322C0E0C083C082C017
:10185000D075D000C006C00790E680E030E70E8566
:10186000353985363A753B01753C0C800E7E007F1C
:10187000EC8E398F3A753B01753C2C5391EF90E615
:101880005D7410F0D007D006D0D0D082D083D0E0E5
:1018900032C0E0C083C082C0D075D000C006C0078F
:1018A00090E680E030E70E85353985363A753B01A4
:1018B000753C0C800E7E007FEC8E398F3A753B01B3
:1018C000753C2C5391EF90E65D7420F0D007D00664
:1018D000D0D0D082D083D0E03200000090E60474F3
:1018E00080F00000007402F00000007406F00000B8
:1018F00000E4F090E612E054F4F090E615E0547F36
:10190000F090E613E0547FF000000090E6187405B4
:10191000F00000007415F000000090E61A7409F061
:101920002290E6BAE090E000F012008090E680E0BD
:1019300030E71800000090E6247402F0000000E494
:1019400090E625F0F510750F018017000000E49077
:10195000E624F000000090E6257440F0E4751020C5
:10196000F50FF50EF50DD3228E548F5590E600E05D
:1019700054187012E5552401FFE43554C313F5548F
:10198000EF13F555801590E600E05418FFBF100BDB
:10199000E55525E0F555E55433F554E5551555AEB7
:1019A00054700215544E6005121C7A80EE22E490A9
:1019B000E671F075B4FFF5A0220405300A0EE5B11A
:1019C0005420C413540790E740F0802853B10453C7
:1019D000807F75A04190E6F1E090E740F0E58090CF
:1019E000E6F230E206E04440FF8004E054BFFF909E
:1019F000E740EFF0E490E68AF090E68B04F0228F67
:101A0000578E568D558C5400000090E6D1EFF000B3
:101A1000000079087808120B368F578E568D558C3A
:101A20005490E6D0EFF00000007808120B368F5784
:101A30008E568D558C5490E6CFEFF0C209021D2AC8
:101A400030080890E6487406F0802BE55530E01425
:101A50002400F58274F83554F583E4F00555E55516
:101A600070020554000000E55490E698F000000074
:101A700090E699E555F0D322C0E0C0D0C28CC3E512
:101A8000199428E518648094805012758A00758C2A
:101A9000000519E51970020518D28C800AE5196451
:101AA0002845187002D200D0D0D0E03290E6A0E0F5
:101AB0004480F090E680E054FDF0E04408F07FF4CC
:101AC0007E0112196890E65D74FFF090E65FF053B6
:101AD00091EF90E6FB7402F090E680E054F7F0227C
:101AE000C0E0C083C0825391BF90E6617402F09061
:101AF000E6D1E0F51390E6D0E0F51490E6CFE0F5FE
:101B00001590E6F574FFF0D20BD082D083D0E0328E
:101B100030060990E680E0440AF0800790E680E015
:101B20004408F07FDC7E0512196890E65D74FFF0D2
:101B300090E65FF05391EF90E680E054F7F022AF2B
:101B40005CAE5BAD07AC06ED2401FBE43CF59AAF5F
:101B500003EFF59B759DE48D828C83E0F59E7F01FC
:101B600090E67BE090E67CF00FBF21F42290E682C5
:101B7000E030E004E020E60B90E682E030E119E09E
:101B800030E71590E680E04401F07F147E001219E2
:101B90006890E680E054FEF022A907AE42AF438F82
:101BA000828E83A3E064037017AD0119ED700122EA
:101BB0008F828E83E07C002FFDEC3EFEAF0580DF40
:101BC0007E007F0022121D77500C90E68BE070069D
:101BD000121BEF400122E5172403FFE43516FE90A7
:101BE000E68BE0FDD3EF9DEE9400500122C322E48A
:101BF000FFFE90E68BE07012C3EF9410EE648094C9
:101C0000A750070FBF00010E80E8C3EF9410EE64E9
:101C10008094A7400122D32290E6BCE0B4010CD20C
:101C20000A75B20AE4F5B475B65822C20A75B2FB59
:101C300075802075B4FF75A01075B6FC75B1C02213
:101C4000C0E0C083C08275B20B5380F075B60075DA
:101C5000B400D205D20D5391EF90E65D7408F0D038
:101C600082D083D0E03290E682E044C0F090E681FA
:101C7000F04387010000000000227400F58690FD0B
:101C8000A57C05A3E582458370F922E490E6FBF08C
:101C900085353985363A90E60174EAF0753402C22A
:101CA00003D28C22C0E0C083C082D2025391EF9055
:101CB000E65D7401F0D082D083D0E032C2AFC28C36
:101CC000758E035389F0438901E4F58AF58CC2B916
:101CD000D2A922C0E0C083C0825391EF90E65D7428
:101CE00004F0D082D083D0E032C0E0C083C0825301
:101CF00091EF90E65D7402F0D082D083D0E0329014
:101D0000E74074B5F0A37403F0E490E68AF090E63F
:101D10008B7402F022000000E490E6D0F000000096
:101D200090E6D104F0C209021D2A00000020090437
:101D30007F0080027F068FBB000000021DAD90E097
:101D400000E090E740F0E490E68AF090E68B04F043
:101D5000D32290E001E090E740F0E490E68AF09032
:101D6000E68B04F0D322E58030E207E5804420FFD3
:101D70008002AF808F802290E6BEE07002A3E06018
:101D800002D322C32290E6BAE090E001F012008074
:101D9000D32200010202030304040505E490E67265
:101DA000F075B6D82290E6A7E020E1F922E5BB3035
:101DB000E7FB22121DA5021DAD120080D32275344F
:101DC000012253D8EF325380DF22223232323232B4
:101DD00032323232323232323232323232323232E3
:0E1DE000323232323232323232323232323239
:00000001FF
